:100000000C9466000C948E000C948E000C948E0060
:100010000C948E000C948E000C948E000C948E0028
:100020000C948E000C948E000C948E000C948E0018
:100030000C948E000C948E000C948E000C948E0008
:100040000C9468030C948E000C9436030C941003EB
:100050000C948E000C948E000C948E000C948E00E8
:100060000C948E000C948E00000000080002010029
:100070000003040700000000000000001112131428
:1000800015160A0B0C0D0E0F0001020304050000EB
:100090000000250028002B0000000000240027009D
:1000A0002A000404040404040404020202020202FA
:1000B000030303030303010204081020408001022C
:1000C00004081020010204081020B20311241FBEEE
:1000D000CFEFD8E0DEBFCDBF21E0ACE1B1E001C0A1
:1000E0001D92AB3DB207E1F711E0A0E0B1E0ECE515
:1000F000FCE002C005900D92AC31B107D9F710E0D9
:10010000C6E6D0E004C02197FE010E941806C5365D
:10011000D107C9F70E94F8030C942C060C94000038
:1001200090E0FC01EA54FF4F2491FC01EE55FF4F93
:100130008491882399F090E0880F991FFC01E8567C
:10014000FF4FA591B491FC01E257FF4F8591949127
:100150008FB7F894EC91E22BEC938FBF0895CF9278
:10016000DF92EF92FF920F931F93CF93DF936C0177
:100170007A018B01C0E0D0E0CE15DF0589F0D8010F
:100180006D918D01D601ED91FC910190F081E02DF2
:10019000C6010995892B11F47E0102C02196ECCF8E
:1001A000C701DF91CF911F910F91FF90EF90DF90EA
:1001B000CF900895089580E090E00895FC01538D5C
:1001C000448D252F30E0842F90E0821B930B541731
:1001D00010F0CF96089501970895FC01918D828DBE
:1001E000981761F0828DDF01A80FB11D5D968C918B
:1001F000928D9F5F9F73928F90E008958FEF9FEF96
:100200000895FC01918D828D981731F0828DE80F51
:10021000F11D858D90E008958FEF9FEF0895FC010B
:10022000918D228D892F90E0805C9F4F821B9109D8
:100230008F739927089586E291E00E940F0121E0D3
:10024000892B09F420E0822F0895FC01848DDF01C1
:10025000A80FB11DA35ABF4F2C91848D90E0019639
:100260008F739927848FA689B7892C93A089B18928
:100270008C9180648C93938D848D981306C0028832
:10028000F389E02D80818F7D80830895EF92FF9226
:100290000F931F93CF93DF93EC0181E0888F9B8DA9
:1002A0008C8D981305C0E889F989808185FD24C06B
:1002B000F62E0B8D10E00F5F1F4F0F731127E02EEE
:1002C0008C8DE8120CC00FB607FCFACFE889F989CB
:1002D000808185FFF5CFCE010E942501F1CF8B8D66
:1002E000FE01E80FF11DE35AFF4FF0820B8FEA8900
:1002F000FB898081806207C0EE89FF896083E8897D
:10030000F98980818064808381E090E0DF91CF91E2
:100310001F910F91FF90EF900895CF93DF93EC0121
:10032000888D8823C9F0EA89FB89808185FD05C015
:10033000A889B9898C9186FD0FC00FB607FCF5CF4F
:10034000808185FFF2CFA889B9898C9185FFEDCF97
:10035000CE010E942501E7CFDF91CF91089580E083
:1003600090E0892B29F00E941B0181110C94000060
:10037000089590E0FC01E859FF4F3491FC01EA54E4
:10038000FF4F2491FC01EE55FF4FE491EE2309F459
:100390003BC0332339F1333091F038F43130A9F0D8
:1003A000323001F584B58F7D12C0373091F038308E
:1003B000A1F03430B9F4809180008F7D03C080912A
:1003C00080008F77809380000DC084B58F7784BDC7
:1003D00009C08091B0008F7703C08091B0008F7DFD
:1003E0008093B000F0E0EE0FFF1FE257FF4FA591A2
:1003F000B4918FB7F894EC91611103C020952E232E
:1004000001C02E2B2C938FBF08953FB7F894809195
:10041000210190912201A0912301B091240126B5E0
:10042000A89B05C02F3F19F00196A11DB11D3FBF2C
:10043000BA2FA92F982F8827820F911DA11DB11DBA
:10044000BC01CD0142E0660F771F881F991F4A95B6
:10045000D1F708958F929F92AF92BF92CF92DF9281
:10046000EF92FF920E9405024B015C0185E0C82ECD
:10047000D12CE12CF12C0E940502DC01CB01881962
:100480009909AA09BB09883E9340A105B10558F016
:1004900021E0C21AD108E108F10888EE880E83E055
:1004A000981EA11CB11CC114D104E104F10419F778
:1004B000FF90EF90DF90CF90BF90AF909F908F9084
:1004C00008958EBD00000DB407FEFDCF8EB50895D2
:1004D0009CB59F7D9CBD9CB5937F9CBD9CB59C7F2E
:1004E0009CBD9DB591609DBD682F8091C5010E9406
:1004F000B9018091D7019091D8018230910538F0EF
:10050000880F991F880F991F05970197F1F7089594
:1005100080E00C9468021F93CF93DF931F92CDB7B6
:10052000DEB789830E94880289818F710E946102EF
:100530008FEF0E946102182F81E00E946802812FD4
:100540000F90DF91CF911F9108951F93CF93DF9369
:1005500000D0CDB7DEB76A8389830E948802898183
:100560008F7180620E946102182F6A81862F0E941B
:10057000610281E00E946802812F0F900F90DF914D
:10058000CF911F91089580E00E948B0281FD07C0EA
:10059000682F626080E00E94A5020C942A020895F0
:1005A000CF930E94880281EE0E946102C82F81E0F1
:1005B0000E9468028C2FCF910895EF92FF920F93C3
:1005C0001F93CF93DF9300D01F92CDB7DEB7162FC6
:1005D0004A837B8389830E94880289818F7180622C
:1005E0000E946102082FE12E7B81F72E4A81140FB1
:1005F0001E1531F0F70181917F010E946102F8CF51
:1006000081E00E946802802F0F900F900F90DF9181
:10061000CF911F910F91FF90EF9008950E941E06B9
:100620001F920F920FB60F9211242F933F934F9367
:100630005F936F937F938F939F93AF93BF93EF934A
:10064000FF9386E291E00E942501FF91EF91BF9117
:10065000AF919F918F917F916F915F914F913F915A
:100660002F910F900FBE0F901F9018951F920F9211
:100670000FB60F9211242F938F939F93EF93FF93B5
:10068000E0913601F09137018081E0913C01F091D9
:100690003D0182FD12C0908180913F018F5F8F7379
:1006A00020914001821751F0E0913F01F0E0EA5DB6
:1006B000FE4F958F80933F0101C08081FF91EF91A4
:1006C0009F918F912F910F900FBE0F901F901895B3
:1006D0001F920F920FB60F9211242F933F938F9377
:1006E0009F93AF93BF9380911D0190911E01A091A4
:1006F0001F01B091200130911C0123E0230F2D3701
:1007000020F40196A11DB11D05C026E8230F029615
:10071000A11DB11D20931C0180931D0190931E010A
:10072000A0931F01B093200180912101909122019B
:10073000A0912301B09124010196A11DB11D8093C8
:10074000210190932201A0932301B0932401BF9132
:10075000AF919F918F913F912F910F900FBE0F906E
:100760001F901895E6E2F1E01382128288EE93E082
:10077000A0E0B0E084839583A683B7838AE091E00C
:100780009183808385EC90E09587848784EC90E06A
:100790009787868780EC90E0918B808B81EC90E04E
:1007A000938B828B82EC90E0958B848B86EC90E02F
:1007B000978B868B118E128E138E148EE3ECF1E0E4
:1007C00087E090E09183808388E090E09383828348
:1007D000168280E28783108685E0868785E090E038
:1007E000A0E0B0E0848B958BA68BB78B1186089523
:1007F000CF93DF93CDB7DEB7C054D1090FB6F894CD
:10080000DEBF0FBECDBF789484B5826084BD84B551
:10081000816084BD85B5826085BD85B5816085BDFB
:1008200080916E00816080936E00109281008091B3
:10083000810082608093810080918100816080933B
:100840008100809180008160809380008091B10060
:1008500084608093B1008091B00081608093B0008B
:1008600080917A00846080937A0080917A0082601F
:1008700080937A0080917A00816080937A008091E1
:100880007A00806880937A001092C100E09136016E
:10089000F091370182E08083E0913201F0913301E1
:1008A0001082E0913401F09135018FEC8083109239
:1008B0003E01E0913A01F0913B0186E08083E091B6
:1008C0003801F0913901808180618083E0913801A5
:1008D000F0913901808188608083E0913801F09146
:1008E0003901808180688083E0913801F09139017D
:1008F00080818F7D80838091C3019091C40120917C
:10090000C5013091C6018217930711F00E94900033
:100910008091C5019091C6012091C3013091C4011D
:100920002817390711F00E9490001FB7F8948091A2
:100930002501811124C0ECEAF0E08491E0ECF0E0C4
:100940009491E82FF0E0EE0FFF1FE856FF4FA591BE
:10095000B491EC91E92321F461E08AE00E94B901AD
:100960008AE00E9490008CB580618CBD8CB580645B
:100970008CBD8DE00E9490008BE00E9490008091E1
:1009800025018F5F809325011FBF8091C301909146
:10099000C4012091C5013091C6018217930719F057
:1009A00060E00E94B90181E00E9468020E942A0270
:1009B0006CE080E00E94A5026FE584E00E94A50241
:1009C00086E00E948B02877D182F10628BE990E0F1
:1009D000A0E0B0E08093D3019093D401A093D5011F
:1009E000B093D601612F86E00E94A50286E00E94A6
:1009F0008B02811709F4EAC086E00E948B0286E030
:100A00000E948B0245E550E060E070E04093D30126
:100A10005093D4016093D5017093D601682F677D00
:100A200086E00E94A50286E00E948B020E94880256
:100A300080E50E94610283E70E94610281E00E94DA
:100A4000680260E08DE10E94A50260E08CE10E94F6
:100A5000A5021092CB0160E787E00E94A5026CE43A
:100A600085E00E94A5020E94880282EE0E94610237
:100A700081E00E9468020E94D0020E94C30280E0CE
:100A80000E948B02682F6E7F80E00E94A502409139
:100A9000D10150E060E071E08CEC91E00E9423060F
:100AA000E2E8F0E084914091D10160E071E00E94C1
:100AB000DD02ECE7F0E084916091CA010E94A5029A
:100AC00082E00E948B0208E810E0F801949161E056
:100AD00070E001C0660F9A95EAF7682B82E00E94E9
:100AE000A50286E00E948B02682F676086E00E9464
:100AF000A5020E94C30280E00E948B02682F616001
:100B000080E00E94A50260E787E00E94A502809134
:100B1000C3019091C4012091C5013091C601821793
:100B2000930719F061E00E94B9018091CC018823FC
:100B300041F04091D1016CEC71E08AE00E94DD024D
:100B400011C082E00E948B02F801049121E030E0A4
:100B500001C0220F0A95EAF72095622F682382E0F0
:100B60000E94A5028DE10E948B0281FD0E94D002AD
:100B70008CE3982E6E01F5E0CF0ED11CCE010196CC
:100B80007C0187E10E948B0280FF24C01CC081E0B1
:100B90000E94680260E787E00E94A502F7010190C9
:100BA0000020E9F73197AF014E195F09B70186E2DE
:100BB00091E00E94AF0042E050E068E171E086E21F
:100BC00091E00E94AF000E94AF01DBCF81E08093F3
:100BD000C90112CF19821A821B821C82F601892D4B
:100BE00011928A95E9F71091CA011034F8F000E4E7
:100BF0008091CB01811102C0101B01C010E00E9446
:100C0000880281E60E9461025701015038F08FEF9F
:100C10000E946102F50181935F01F7CF112309F46E
:100C2000B6CF8FEF0E9461021150F8CF012FE0CFB5
:100C3000EE0FFF1F0590F491E02D099481E090E004
:100C4000F8940C942C06FB01DC0102C001900D927B
:0C0C500041505040D8F70895F894FFCFB1
:100C5C00303030303100000000004601AF00DE00C3
:0C0C6C008D010F01ED0001010D0A0000D8
:00000001FF
